:100000000C94C10E0C94E90E0C94E90E0C94E90EBC
:100010000C94E90E0C94E90E0C94E90E0C94E90E84
:100020000C94E90E0C94E90E0C94E90E0C94A810B3
:100030000C94E90E0C94E90E0C94E90E0C94E90E64
:100040000C945E100C94E90E0C94E90E0C94E90EDD
:100050000C94E90E0C94E90E0C94E90E0C94E90E44
:100060000C94E90E0C94E90E0F1B6E1B431CC61C6E
:1000700092209F21B622C522181E141E1D1E1F1E6F
:100080002B1E271E2F1E311E781E741E7D1E7F1EE6
:100090008B1E871E8F1E911EE5251F201F201F20EF
:1000A000CA25CA25BD25BD25952595256C266E2614
:1000B000702675267A267A267A267A26822682263F
:1000C0008226822627202720272027208826060010
:1000D00002F0D0000000010002F0D0100000010189
:1000E0000000F024000002010000022400000200D1
:1000F00002F0204A0001010002F0205A000101052F
:100100000002F0D0000000010002F0D02800000141
:10011000010000F94400000200020020000101017A
:100120000002002028010101050002F0D0000000BB
:10013000010002F0D028000001010000F944000095
:10014000020002002000010101000200202801013C
:1001500001050300000E0400000A030000E03E0059
:10016000000A0002F0D0000000010002F0D02300DD
:1001700000010002F0D04600000106000000F0126D
:10018000000001000000F900000001000000021260
:10019000000001020000E440000002020000F52C13
:1001A0000000020200000640000002060003D6D054
:1001B000000000010003E6E000000001010000EB88
:1001C00014000002010000F92400000201000007F1
:1001D00034000002010000F940000002050002F0B6
:1001E000D0000000010002F0D02800000101000052
:1001F000F9440000020002F020140001010002F0A6
:10020000203C00010104000000F012000001000089
:1002100000F90000000100000002120000010300CC
:10022000000E3000000A050001000500000001007A
:1002300001000514000001000100EC0000010100B4
:100240000100EC14000101000000F9280001010484
:10025000000000E700000001000000F900000001BC
:100260000000000B00000001020000F51600000174
:1002700004000000F0000000010000000200000087
:1002800001010000F0120000020100000212000053
:1002900002050001000500000101000100EC14004E
:1002A0000001010000E932000002010000F9320003
:1002B0000002010000093200000205010000E724ED
:1002C000000002000000F012000001000000F90030
:1002D00000000100000002120000010100000B24D8
:1002E0000000020200000005000000010000000004
:1002F00018000001000000FB50000001000000F6A3
:10030000680000010E0201070A040C0008090D0331
:100310000B05060E0201070A040C0008090D030B69
:1003200005060E00020406080A0C01030507090B66
:100330000D0E0708090D000102030A0B0C04050647
:100340000E000102030405060708090A0B0C0D053F
:100350000B88042424D80001010100050B08844403
:1003600024180101010101050B0008FC0000000137
:10037000010100D5F08D14A1C881CFD9F1AF2000C3
:100380005068617261702028546573742900090BEC
:100390007C823939013939827C00000F080F080F3F
:1003A000000046696C6D6F746520284465762900ED
:1003B0000B09F038FD767C7C7C76FD38F00000007F
:1003C000010100010100000043726564697473005B
:1003D000486967680053636F72650053636F72000A
:1003E0004F7665720047616D65005440FBFB736793
:1003F0000F1F1F3F3F7FFFFFFFFFFFFFFFFFFFFFBD
:10040000FFFFFFFFFFFFFFFFFFFFFFFFFFFFFFFFFC
:10041000FFFFFFFFFFFFFFFFF3E3870F0F1F3FBF4C
:10042000FF7F3F9FEFFFFFFFFFFFFFFFFFFFFFFF8C
:10043000FFFFFFFFFFFFFFFFFFFFFFFFFFFFFFFFCC
:10044000F8F2E0CC840480C0C0E0E0E1C1C38707DB
:100450000F0F1F3F3F7FFFFFFFFFFFFFFF7F7F3F2C
:100460003FBFBF9FDFDFCFEF6F677777371B0B8112
:10047000C0E2E1E1C080000103070F1F3F7F7FFF63
:10048000FFFFFFFFFFFFFFFFFFFFFFFFFFFFFFFF7C
:10049000FFFFFFFFFFFFD77BFFF7DE7973470F1FDB
:1004A0007FFFFFFFEEF4F07078787020010100000C
:1004B0000000010107031373313139188CC0F8FCB7
:1004C000FEFEFFFFFFFFFFFFFFFFFFFEFEFCF8F059
:1004D000F0E0C080010103070F1F3F3F7FFFFFFFD8
:1004E000FFFFFF7FBFFFFFFFFFFFFFFFC381880A02
:1004F0000A040E080000010101103078F8F8F2F249
:10050000E0C08088C0C0200010000000000203038B
:1005100087470F1F3FFFFFFFFFFFFFFFFFFFFFFFAB
:10052000FFFFFFFFFFFFFFFFFFFEFCFC78700000F6
:100530002030198F03010C1F3F7FFFFFFFFFFFFFDC
:10054000FFFFFFFFFFFFFBFFF77EBABE9CC8CB6635
:1005500074310B03010109040301010A04180404A6
:10056000060703010080800000000103070F1F3F02
:100570007FFFFF7F7F3FBFDFCFEFF7733B9D0C0611
:1005800047E1F0F8FCFEFFFFFFFFFEFEFCFCF8F980
:10059000FFFFFFFFFFFFFFFF1F673B1D0E0F07035E
:1005A0000101000000088084C0C2E2E1F1F1F0F036
:1005B000E4C280000000F4F2FFFDF9F0702080C07A
:1005C000E0F0F0E0C0800000000001030301849E21
:1005D0008FC7E1F0F8FFFFFFFFFFFFFFFFFFFFFF07
:1005E000FFFFFFFFFFFFFFFFFFFFFFFFFEFCFCF829
:1005F000F8F8F8F8FCFCFEFEFFFFFFFFFFFFFFFF2F
:10060000FFFFFFEBFFBDFFFBFF3E0C65E1E1650F68
:100610001F1F3F1F0F07078381E0E0E0E08000001D
:100620008001030F3F7FFFFFFFFFFFFFFFFFFFFF83
:10063000FFFFFFFFFFFFFFFFFFFFFFFFFFFFFFFFCA
:10064000FFFFFFFFFFFFFFFFFFFFFFFFFFFFFFFFBA
:10065000FFFFFFFFFFFFFFFFFFFFFEFBECF0E0C12E
:10066000E1E1E0B0F070F8ACFCFCF9F3E7C78F9F74
:100670003E3DFBF6E4C992264C983163C79F3F7F0D
:10068000FFFFFFFFFFFFFFFFFFFFFFFF4120436F63
:100690006E74696E756500546F74616C2053636F7E
:1006A000726520004D697373696F6E2053636F72BA
:1006B0006520000F0F80F0E08080C0C0C0F87E771A
:1006C0007EC0C08000070300000101010F3F773F9B
:1006D0000101004D697373696F6E20537563636523
:1006E000737366756C00E4020200750506007D06F2
:1006F0000800750504000080DC00090093000A0072
:1007000083000600AF000A000080AF00030026014E
:100710000400B8010400A50001000080AF0016002D
:10072000AF001600AF0016000080387CFEFEFE7C95
:10073000FEFFBA0000000000000001001C3E7FFF29
:10074000FEFF7F3E1C000000000100000000F4FEE0
:10075000FFFFFFFFFFFEFC03070F0F0F0F0F070345
:10076000FCFEFFFEFCFCFEFCF8010101010303039B
:10077000030309090038444444285492000000004F
:100780000000000000000909001C3E7EFC7E3E1CAB
:1007900000000000000000000000090C00F40EA49E
:1007A00042A202FC00000304040404040300090A3A
:1007B00000FCF2FC00F8E4F8000000000000010179
:1007C00001005504690200000D0055046900000095
:1007D0000D0055046900000001001704AB01000082
:1007E00001001704D500000001001704D500000027
:1007F0000100DC03810200000100DC03D5000000E1
:100800000100A4031C0100000100A4034600000035
:100810006C00A403220000006C00A403220000006E
:100820006C00A40322000000480070031C010000BB
:100830000100E4021C010000010070031C01000023
:1008400001003F031C010000010093021C01000095
:1008500001003F031C0100000100E40281020000CE
:1008600001006E024600000001000B02460000007D
:1008700001006E024600000001002A027B03008096
:10088000E402F20100009000E402220000004800AF
:10089000E402220000004800E402B10000006C0005
:1008A000E402690000002400E40246000000480061
:1008B0003F03690000002400A40369000000240035
:1008C000DC030A040000FB00DC03690000002400D4
:1008D0005504460000004800DD04460000004800C2
:1008E00075055D0200002400750522000000480027
:1008F0007505220000004800750522000000B300C5
:100900005504B100000024007505460000004800B1
:10091000C8057500000018007D066900000024006D
:10092000C8056906008057001600570016005700DA
:10093000160000804D697373696F6E200000002CF3
:10094000015D0152005D0152005D0152005D0152E6
:100950000000000300720152007201520072015245
:100960000072015200000003008801520088015209
:10097000008801520088015200000003009F0152CC
:10098000009F0152009F0152009F0152000000038E
:1009900000B8015200B8015200B8015200B801522B
:1009A0000000000300D2015200D2015200D20152D5
:1009B00000D201520000000300EE015200EE01528D
:1009C00000EE015200EE015200000003000B025243
:1009D000000B0252000B0252000B025200000003F7
:1009E000000080101110F8F810101030B0B0FEFFA9
:1009F000FEB0808000103F3F101010191B1AFEFF40
:100A0000FE1A0303010000000000000000000001C6
:100A100000000000001E0B51D8DDD851000000007E
:100A2000FC00E0505050200030C000C03000E050CA
:100A300050502000FC0400050004000000000100EC
:100A4000000101010100000001000000000101019E
:100A50000100010B10F02010E00000000000000079
:100A600001000001000000000000007810F148457E
:100A700048F1000000002050509000F8101000E0F5
:100A80001010E00000F020102000F810100000000E
:100A900000E0101010E000E01010E00000F010E0A6
:100AA00010E000E050505020000000000000000066
:100AB000FD242524D90000002050509000E01010A3
:100AC00010E000F00000F00000F02010E000E01066
:100AD0001010FC000000E0101010E00020F82404CA
:100AE0000020F824040500040005000000000101B6
:100AF00001000000010100000101010100010000EE
:100B000000000001010000000004090909070000BD
:100B100001010101000100010001000001010101CA
:100B200000000000000000000501050104000000B5
:100B300001010100000001010100000001010001AC
:100B4000000100000100000101010000000000019F
:100B5000010100000001000000000100007B3000E6
:100B6000008000609008040201810101010101017F
:100B7000FF00000000000000008000E010080402F8
:100B80000101010181818181818181810101010155
:100B900002040810E00000000000000000000080D7
:100BA00020C0300C0301010101C14141C10101011B
:100BB00001010101FF0000000000000000008000B2
:100BC000E01008040201010101818181818181819C
:100BD000810101010102040810E002050A152A142E
:100BE000A952AA01FF000000000000FF0000000061
:100BF00000000055AA00FF0000000000000000FFF8
:100C00008094AA94AA80FF0000000000000000FF6A
:100C1000000000000000802088621C070100000026
:100C2000C0300CA350A800FF00000000000000FF2F
:100C3000000000000000000055AA50A754A454A4CE
:100C40005404040487808A94AA9480FF0000000062
:100C500000000000FF000000000000AA55AA00FFED
:100C6000000000000000FF00000000000000152A46
:100C700054A952A4489020A020A020A020A020A0E9
:100C800020E00000000000000000FF00000000A0C5
:100C900054AA00FF0000000000000704040504053A
:100CA00004040700000000000000070404FC00002A
:100CB000000000000000000000000050A050803F35
:100CC000A020A020A020E00000000000000C12E105
:100CD0000000000000000AE52A203F00000000009C
:100CE000003F2020E000000000408000FC050405DB
:100CF00004050405043D202120252A203F00000092
:100D00000000000000FF000000002A152A14291529
:100D1000291529152915291509E52925213F00003F
:100D200000000000003F2121E100000000000080E1
:100D300000FC04040404050405043D202522252AA2
:100D4000203F0000000000000000FF00000000A89D
:100D500054805F9050905090509050905010101FC1
:100D60000000000055AA409F509050905090509025
:100D700050905090509050905090501008040201A4
:100D80000000000000000000000000000000000063
:100D90000054A8409F5090509050905090509050C8
:100DA0001010101F0000000000152A54A953A64C73
:100DB000985090509050905090509050905090502B
:100DC00010080402010000000000020102010201FB
:100DD0000201020102010201000000000000000106
:100DE00002010201020102010201020102010201EB
:100DF00002010201000000000000000000000000ED
:100E000000000000000000000000000001020102DC
:100E100001020102010201020102010000000000C2
:100E200000000000000000000102010201020102B6
:100E300001020102010201020100000000000000A5
:100E4000005504A8000000B0005504A80000005C94
:100E5000013F03A8005504A800DC030C067003A89A
:100E6000000000B0007003A80000005C017003A83F
:100E700000E402A8007003A800A403E200E402E278
:100E800000A403E2001704E2003F03E2001704E2BB
:100E9000005504A8000000B0005504A80000005C44
:100EA000013F03A8005504A800DC030C067003A84A
:100EB000000000B0007003A80000005C017003A8EF
:100EC00000E402A8007003A800A403E200E402E228
:100ED00000A403E2001704E2003F03E200DD04E2A5
:100EE000007505CF08BA020604E402A8001003A8A2
:100EF000003F035F05A4035603000007001704A882
:100F0000005504A800DD04A80075055F05C8055656
:100F10000300000700490755017D06A800C8055FCA
:100F200005DD04560300000700C80555017505A836
:100F30000055045603000007001704A800A403A8E6
:100F4000003F03A800BA020604E402A8001003A8A8
:100F5000003F035F05A4035603000007001704A821
:100F6000005504A800DD04A80075055F05C80556F6
:100F70000300000700490755017D06A800C8055F6A
:100F800005DD04AE023F035501C805A8007505A89C
:100F90000055045F050080400004000150000081FE
:100FA000400005FF0150000081400006FF00251AA7
:100FB0000105FF0118031804000119000081400019
:100FC00006FF0040FF0028FF005000008180C0E0C5
:100FD000F0F8F8FCFCFCFEFEFEFFFFFFFFFFFFFF4A
:100FE000FFFFFFFFFFFFFFFFFFFFFFFFFEFEFEFC17
:100FF000FCF8F0C0000103070F0F1F1F1F3F3F3F0A
:101000007F7F7F7F7F7F7F7F7F7F7F7F7F7F7F7FF0
:101010007F7F7F3F3F3F1F1F0F0701FFFFFFFFFF46
:10102000FFFFFFFF0101010101010101010910FEA4
:10103000FDC3BBBBBBC7FFFF0101010101010101F2
:1010400001271080C060B058A85CAC54AEFA8EF78F
:10105000959FF5979DF7959FFDFFFD7F7D3FDDDF18
:10106000DD3FFEFEFE0CFC18F0C0000103060D0A79
:101070001D1A153A2F3877547C57745C77547C5F6F
:101080007F5F7F5F7E5D7D5D7E3F3F3F181F0C076A
:10109000010910FF7F87BBBBBBC7FFFF0001010138
:1010A00001010101010910FFFFC7BB3BBBC7FFFFE7
:1010B0000101010100010101010910FFFFC7BBBBD4
:1010C000BB877FFF0101010101010101000910FF40
:1010D000FFC7BBBBBBC7EFEF01010101010101016C
:1010E000010910FFFFC7BBBBBBC3FDFE010101012E
:1010F00001010101010910FFFFC7BBB8BBC7FFFF1A
:101100000101010101010101010000000000F8FFDF
:10111000FFFEF080000000000000000000008000E2
:1011200000081C3E3E3EFFFFFFFFFFFF3E3E3E3EEF
:101130001C1C1C1C1C7FFF7F0800000000000F7F90
:101140007F3F0700000000000000000000000000DA
:101150000018170000000000F8CFCFFEF08000005C
:101160000000000000000000800000081C3E2A3E35
:10117000FFDDDDDDDDFF3E3E3E3E1C1C1C1C146B16
:10118000EB7F0800000000000F79793F07000000A6
:1011900000000000000000000000000F0F000E9E85
:1011A000FEECD8B8FCF69F07030000000E0F070204
:1011B00003010103032736180C06000F0F80C0C07F
:1011C0007E4146F8C0C0C08080E0F0800001013F51
:1011D00061310F01010100000307000F0F3878F0A3
:1011E000A0E0C0C0E0E0F2360C18300000383C3F10
:1011F0001B1D1E1F377C70600000000F0F000000D9
:10120000000206E6FFE6060200000000040A0A09E2
:1012100009093F713F0909090A0A040F0F00301834
:101220000C36F2E0E0C0C0E0A0F0783800000060CA
:10123000707C371F1E1D1B3F3C38000F0F80F0E0F5
:101240008080C0C0C0F846417EC0C0800000070357
:1012500000000101010F33613F010100000F0F0089
:10126000000003079FF6FCB8D8ECFEFE0E00000657
:101270000C183627030301010302070F0E0F0F108E
:101280002828484848FEC7FE48484828381000002B
:1012900000002030337F33302000000000050403BD
:1012A000040A0906050406090609060504020204E3
:1012B000080F050406090701060504070807010FC2
:1012C000050404040F0506050406090409060504BF
:1012D0000F0204090605040E0404060405040609A9
:1012E000090906000E9EFEFCF8F8FCFE9F070300AD
:1012F00000000E0F070303010103032736180C0635
:101300000080C0C0FEFFFEF8C0C0C08080E0F0805A
:101310000001013F7F3F0F0101010000030700387A
:1013200078F0E0E0C0C0E0E0F2360C1830000038A1
:101330003C3F1F1F1F1F3F7C70600000000000002B
:10134000000206E6FFE6060200000000040E0E0F93
:101350000F0F3F7F3F0F0F0F0E0E040030180C369B
:10136000F2E0E0C0C0E0E0F0783800000060707C9F
:101370003F1F1F1F1F3F3C380080F0E08080C0C02F
:10138000C0F8FEFFFEC0C08000070300000101019D
:101390000F3F7F3F01010000000003079FFEFCF8A4
:1013A000F8FCFEFE0E0000060C18362703030101B0
:1013B0000303070F0E103838787878FEFFFE787830
:1013C00078383810000000002030337F33302000A0
:1013D0000000000F0F000E9EFEECD8B8FCF69F0731
:1013E000030000000E0F0702030101030327361854
:1013F0000C06000F0F80C0C07E777EF8C0C0C08092
:1014000080E0F0800001013F773F0F010101000003
:101410000307000F0F3878F0A0E0C0C0E0E0F2361C
:101420000C18300000383C3F1B1D1E1F377C7060BD
:101430000000000F0F000000000206E6FFE60602B3
:1014400000000000040E0E0B0F0F3F713F0F0F0B3B
:101450000E0E040F0F0030180C36F2E0E0C0C0E0B2
:10146000A0F0783800000060707C371F1E1D1B3F05
:101470003C38000F0F00000003079FF6FCB8D8ECC3
:10148000FEFE0E0000060C183627030301010302BE
:10149000070F0E0F0F103838687878FEC7FE78787F
:1014A00068383810000000002030337F33302000CF
:1014B00000000040F000051F0100000020F80009B6
:1014C0003F01000000A0FE200BFF09000000B0FF5C
:1014D00090101BFF131100010000031140F00005E4
:1014E0001F01000000031120F800093F0100000067
:1014F0000311A0FE200BFF090000000411B0FF90B3
:10150000101BFF1311000100000004004000000048
:10151000808842000120000080400011000240024B
:101520000000000080080000000100000000000032
:10153000000000000000060F0460C0C88C9EC7C0F9
:10154000601002004080C0C806070363678F0D105B
:101550000000C06200000001000000000000000068
:1015600001000000001C1C7CFCFCF8F8FC3C1C008A
:101570000000000038383E1F0F0F070F1F1E1C0011
:10158000000000000000000000000000000000005B
:1015900070F0F0FEFEFEF8F0F8F8FC7E3E0E000063
:1015A000F0FDFF7F7F3F1F0F1F3F3F7C70700001EA
:1015B000010100000000000000000000000F110009
:1015C00004004000000080884200012000008040AC
:1015D000001100024002000000008008000000012D
:1015E0000000000000000000000000000F11060FC6
:1015F0000460C0C88C9EC7C0601002004080C0C894
:1016000006070363678F0D100000C0620000000131
:1016100000000000000000000100000F11000000A9
:10162000001070E0E0F03008000000000000001042
:10163000080E07070307060800000000000000006E
:10164000000000000000000000000F112060E0E03A
:10165000FCF8F0E0F0F078380C00000000E07D3F8E
:101660003F1F0F070F1F1C3020000000000000006C
:1016700000000000000000000010F81010B0FEFF95
:10168000908000103F10111BFFFF130301000000AA
:101690000000000100000010F8F810101030B0B089
:1016A000FEFFFEB0808000103F3F101010191B1B82
:1016B000FFFFFF1B0303010000000000000000000B
:1016C000000100000000000411B0FF90101BFF1388
:1016D00011000100001011008080B0FEFFFEB0B0CC
:1016E00030101010F8F8100103031BFFFFFF1B1B45
:1016F000191010103F3F1000000000000100000012
:10170000000000000000000A11008090FFFE901011
:1017100010F810010323FFFF2321207F2000000089
:101720000100000000000004111090FFB01113FF31
:101730001B000001000A1110F81010B0FEFF90808D
:1017400000103F10111BFEFF1203010000000000FB
:101750000001000000F510E110CD10B910A51091A6
:101760001041102D101B101B101B101B101B101BE9
:1017700010CD0F1B104A161B16EC15BD15901563E6
:1017800015361509155111511151115111511151A0
:1017900011511151110911091109110911091109E9
:1017A00011091109114A161B16EC15BD1590156388
:1017B00015361509157D125D123B121B12FB11DB4C
:1017C00011BB119B11B513971379135B133D131FB5
:1017D000130113E3124A161B16EC15BD1590156381
:1017E00015361509150503050507050205056E11D2
:1017F00071116E050301010301070505040E1F1F8A
:101800000A05050E041F040493147314B30653143D
:1018100033141314F313D313B513971379135B1302
:101820003D131F130113E3124A161B16EC15BD15C9
:101830009015631536150915E3093517271707178E
:10184000D5160717C71635179716791627170717CE
:10185000D5160717C71679164A161B16EC15BD15AF
:101860009015631536150915FB14F014E514DA14F8
:10187000CE14C514BC14B314010204081020408017
:1018800000000000003E5B4F5B3E3E6B4F6B3E1C1A
:101890003E7C3E1C183C7E3C181C577D571C1C5E31
:1018A0007F5E1C00183C1800FFE7C3E7FF00182408
:1018B0001800FFE7DBE7FF30483A060E26297929B2
:1018C00026407F050507407F05253F5A3CE73C5AE7
:1018D0007F3E1C1C08081C1C3E7F14227F22145FC4
:1018E0005F005F5F06097F017F006689956A60601F
:1018F00060606094A2FFA29408047E040810207E19
:10190000201008082A1C08081C2A08081E1010109D
:10191000100C1E0C1E0C30383E3830060E3E0E06E3
:10192000000000000000005F000000070007001436
:101930007F147F14242A7F2A1223130864623649F5
:101940005620500008070300001C224100004122DD
:101950001C002A1C7F1C2A08083E080800807030E2
:101960000008080808080000606000201008040251
:101970003E5149453E00427F400072494949462157
:1019800041494D331814127F1027454545393C4ACB
:1019900049493141211109073649494936464949E2
:1019A000291E00001400000040340000000814222A
:1019B0004114141414140041221408020159090698
:1019C0003E415D594E7C1211127C7F494949363E99
:1019D000414141227F4141413E7F494949417F097F
:1019E0000909013E414151737F0808087F00417F8A
:1019F00041002040413F017F081422417F40404088
:101A0000407F021C027F7F0408107F3E4141413E1F
:101A10007F090909063E4151215E7F0919294626A1
:101A20004949493203017F01033F4040403F1F20A5
:101A300040201F3F4038403F63140814630304787C
:101A400004036159494D43007F414141020408109C
:101A500020004141417F04020102044040404040D7
:101A6000000307080020545478407F284444383845
:101A700044444428384444287F38545454180008B7
:101A80007E090218A4A49C787F0804047800447D91
:101A900040002040403D007F1028440000417F402E
:101AA000007C047804787C08040478384444443882
:101AB000FC1824241818242418FC7C080404084862
:101AC0005454542404043F44243C4040207C1C20B3
:101AD00040201C3C4030403C44281028444C90900E
:101AE000907C4464544C4400083641000000770068
:101AF00000004136080002010204023C2623263C75
:101B00001EA1A161123A4040207A385454555921FF
:101B100055557941215454784121555478402054E9
:101B20005579400C1E527212395555555939545435
:101B3000545939555454580000457C410002457DA4
:101B4000420001457C40F0292429F0F0282528F0A6
:101B50007C545545002054547C547C0A097F4932FA
:101B6000494949323248484832324A4848303A4175
:101B700041217A3A42402078009DA0A07D3944441A
:101B800044393D4040403D3C24FF2424487E4943A5
:101B9000662B2FFC2F2BFF0929F620C0887E090316
:101BA00020545479410000447D413048484A32383D
:101BB0004040227A007A0A0A727D0D19317D262969
:101BC000292F28262929292630484D402038080861
:101BD000080808080808382F10C8ACBA2F10283495
:101BE000FA00007B000008142A142222142A140888
:101BF0009500220095AA005500AAAA55AA55AA0048
:101C00000000FF00101010FF00141414FF0010104B
:101C1000FF00FF1010F010F0141414FC001414F75F
:101C200000FF0000FF00FF1414F404FC141417104C
:101C30001F10101F101F1414141F00101010F0009C
:101C40000000001F101010101F10101010F01000D6
:101C50000000FF101010101010101010FF100000E6
:101C600000FF140000FF00FF00001F10170000FC21
:101C700004F414141710171414F404F40000FF00F3
:101C8000F714141414141414F700F714141417147C
:101C900010101F101F141414F4141010F010F00082
:101CA000001F101F0000001F14000000FC140000A3
:101CB000F010F01010FF10FF141414FF1410101087
:101CC0001F00000000F010FFFFFFFFFFF0F0F0F03A
:101CD000F0FFFFFF0000000000FFFF0F0F0F0F0FCE
:101CE00038444438447C2A2A3E147E020206060206
:101CF0007E027E0263554941633844443C04407E81
:101D0000201E2006027E020299A5E7A5991C2A49F9
:101D10002A1C4C7201724C304A4D4D303048784884
:101D200030BC625A463D3E494949007E0101017E70
:101D30002A2A2A2A2A44445F444440514A444040C3
:101D4000444A51400000FF0103E080FF0000080802
:101D50006B6B083612362436060F090F0600001882
:101D6000180000001010003040FF0101001F0101A9
:101D70001E00191D1712003C3C3C3C0000000000F6
:101D80007C2D11241FBECFEFD8E0DEBFCDBF11E008
:101D9000A0E0B1E0ECE8F3E602C005900D92A43AB1
:101DA000B107D9F727E0A4EAB1E001C01D92A13440
:101DB000B207E1F71EE0C1ECDEE004C02197FE01AE
:101DC0000E94C930C03CD107C9F70E94A6190C94E3
:101DD000C4310C940000CF92DF92EF92FF920F93E8
:101DE0001F93CF93DF936C017A018B01C0E0D0E0A9
:101DF000CE15DF0589F0D8016D918D01D601ED91E9
:101E0000FC910190F081E02DC6010995892B11F418
:101E10007E0102C02196ECCFC701DF91CF911F91C7
:101E20000F91FF90EF90DF90CF9008958091FF0287
:101E3000E091FD02F091FE02882349F0CF01029665
:101E40009093FE028093FD02859194910895CF01B5
:101E500002969093FE028093FD0280819181089505
:101E6000CF92DF92EF92FF920F931F93CF93DF9366
:101E70000E94160F811520E8920761F480916F008F
:101E80008D7F80936F00109281005C985D98109216
:101E9000A8018BC021E02093A801813020E892079F
:101EA00051F48091FB029091FC029093FE0280938A
:101EB000FD020E94160F97FD05C02091FA02222311
:101EC00009F43FC02091F90221113BC021E0209389
:101ED0000003EC01DF77209769F481E08093010330
:101EE0005C983FE9C32E3FE0D32EE12CF12CCAEFE2
:101EF000D0E014C08E0120E030E060E472E48FE0B6
:101F000090E0A90198010E94942E69017A0181E074
:101F1000C81AD108E108F10810920103E091F70214
:101F2000F091F8020995811103C081E080930103CB
:101F3000809100038823B9F180910103811133C09E
:101F400003C010920003C5CF5C992DC05D9A0E941A
:101F5000160F009771F09C01DE010E94E82EDC0153
:101F6000CB0129E0B595A795979587952A95D1F747
:101F700003C08FEF9FEFDC01109280002AE02093D6
:101F80008100D0928900C0928800809302039093D0
:101F90000303A0930403B093050380916F00826054
:101FA00080936F0002C05D98D2CFDF91CF911F91D7
:101FB0000F91FF90EF90DF90CF9008958091D9021C
:101FC00008950895089580E090E00895FC0110823E
:101FD000118212821382148215821682178212864F
:101FE000118654874387138A128A6587108683E097
:101FF000848B148E86E0878708950E94BF313FB797
:10200000F8948091070390910803A0910903B0917F
:102010000A0326B5A89B05C02F3F19F00196A11D04
:10202000B11D3FBFBA2FA92F982F8827820F911D6E
:10203000A11DB11DBC01CD0142E0660F771F881FB5
:10204000991F4A95D1F708958F929F92AF92BF92B0
:10205000CF92DF92EF92FF926B017C010E94FF0F03
:102060004B015C01C114D104E104F104F1F00E94C0
:10207000FF0FDC01CB0188199909AA09BB09883E29
:102080009340A105B10570F321E0C21AD108E1081F
:10209000F10888EE880E83E0981EA11CB11CC114C3
:1020A000D104E104F10419F7DDCFFF90EF90DF9048
:1020B000CF90BF90AF909F908F9008951F920F92F6
:1020C0000FB60F9211242F933F938F939F93AF934B
:1020D000BF938091A4019091A501A091A601B09118
:1020E000A7013091060323E0230F2D3720F401963A
:1020F000A11DB11D05C026E8230F0296A11DB11D2B
:10210000209306038093A4019093A501A093A601B8
:10211000B093A7018091070390910803A091090350
:10212000B0910A030196A11DB11D809307039093FE
:102130000803A0930903B0930A03BF91AF919F9145
:102140008F913F912F910F900FBE0F901F90189578
:102150001F920F920FB60F9211242F933F934F931C
:102160005F936F937F938F939F93AF93BF93EF93FF
:10217000FF938091020390910303A0910403B09117
:102180000503892B8A2B8B2B89F180910103811107
:102190000CC09BB180E189278BB980910003882313
:1021A00021F09BB180E289278BB980910203909145
:1021B0000303A0910403B0910503181619061A062B
:1021C0001B06B4F48091020390910303A0910403D1
:1021D000B09105030197A109B1098093020390937F
:1021E0000303A0930403B093050302C00E94300FC1
:1021F000FF91EF91BF91AF919F918F917F916F91DF
:102200005F914F913F912F910F900FBE0F901F90B4
:1022100018959C01EFE6F0E090819D7F908381E02E
:102220008093FF023093FE022093FD023093FC0264
:102230002093FB020C94300FBC0180E090E00C94E2
:10224000241086B199B19095907880958F70892BE4
:10225000189B02C090E001C090E4892B0895809102
:1022600041038EBDE2E4F3E081910DB407FEFDCFA2
:102270008EBD87E0E134F807B9F70DB407FEFDCF56
:10228000089560387105D0F440345105B8F4E8E79A
:10229000F8E180E1849FD001A0781124A60F477057
:1022A000E40FF11D8491AF5BBC4F222319F06C91B8
:1022B000862B03C080956C9186238C9308952F9272
:1022C0003F924F925F926F927F928F929F92AF92C6
:1022D000BF92CF92DF92EF92FF920F931F93CF9313
:1022E000DF93CDB7DEB729970FB6F894DEBF0FBEE8
:1022F000CDBFFC016A3069F4248D808D918D38E06A
:10230000239F800D911D1124918F808F178A168A2B
:10231000AAC06D3009F4A7C099878887F48C338CE4
:10232000228C608C718C0689178900381105C4F0E5
:10233000A885B9855C962C915C97422F50E0569603
:102340008D919C915797B6E02B9F800D911D112484
:10235000E885F985978B868B258D21116EC083C00A
:10236000F0E46F16710424F7C80125E0F29E800D99
:10237000911D112418161906DCF68F2D90E09C8310
:102380008B83C301A8E0FA9E800D911D11241816BD
:10239000190674F6B5E06B9FB0011124FB01E058FB
:1023A000F74EFA83E98330E08885998504969E8309
:1023B0008D83E981FA81E490353009F4E12C430101
:1023C00088E0482EE0FC02C0532C01C0522C511072
:1023D0000BC0321009C0E6944A948B819C81880E10
:1023E000991E4110EFCF1BC068018C2D801B8F15EB
:1023F00090F754018A2D88198F1568F4252DA501B1
:10240000B6018D819E813F830E9441119FEFA91AE1
:10241000B90A3F81EFCFAFEFCA1ADA0AE6CF3F5FC2
:10242000EB81FC810E0F1F1F89819A8101969A838F
:102430008983363009F0BDCF7BCF6AEF640390010A
:10244000659F300D112420583F4F281739075CF441
:10245000A885B985ED91FC9111970190F081E02D4F
:102460006AE0CD01099581E090E029960FB6F894D5
:10247000DEBF0FBECDBFDF91CF911F910F91FF90B7
:10248000EF90DF90CF90BF90AF909F908F907F9014
:102490006F905F904F903F902F9008951F93CF9330
:1024A000DF93EC010E947E2E182FCE0101960E9430
:1024B0007E2E282F30E0922F8827810F911DDF91EB
:1024C000CF911F9108950F931F93CF93DF931F9286
:1024D000CDB7DEB78C0179830E94862E7981672F74
:1024E000C80101960F90DF91CF911F910F910C942D
:1024F000862ECF93DF93C82F88EC90E00E947E2E2B
:10250000D82F89EC90E00E947E2ED43321F48333BF
:1025100011F4CC2381F188EC90E00E947E2E84336C
:1025200029F064E388EC90E00E94862E89EC90E02C
:102530000E947E2E833329F063E389EC90E00E94B1
:10254000862E60E070E08AEC90E00E94631260E00A
:1025500070E08CEC90E00E94631260E070E08EEC22
:1025600090E00E94631260E070E080ED90E0DF9107
:10257000CF910C946312DF91CF910895DF92EF9287
:10258000FF920F931F93CF93DF93D22EC82FD0E0EB
:10259000062F10E0E42EF12C0C171D074CF02D2D0A
:1025A000A701BE0181E193E00E9441112296F4CF80
:1025B000DF91CF911F910F91FF90EF90DF900895E1
:1025C0000F93CF93DF9380910B0390910C030196AF
:1025D0008F31910528F490930C0380930B0304C072
:1025E00010920C0310920B038091E7029091E80285
:1025F0000196813921E0920728F49093E8028093B4
:10260000E70204C01092E8021092E702C09138037A
:10261000D091390300E020E448E060E070E088E712
:1026200090E00E94D51820E430E049E750E060E0F7
:1026300070E089E790E00E94261841E058E160E0F0
:1026400070E08BE790E00E94E317CE0164E670E053
:102650000E94A130EC01660F771FFB01E758FE4F87
:102660004081518166E070E08BE790E00E94E317C3
:10267000CE016AE070E00E94A130EC01660F771F86
:10268000FB01E758FE4F408151816BE070E08BE722
:1026900090E00E94E317CC0FDD1FC758DE4F488142
:1026A000598160E170E08BE790E00E94E317809130
:1026B000E7029091E80268EC70E00E94A130611599
:1026C000710521F061307105F1F040C08091340353
:1026D0009091350397FD02C0292F01C020E04EE103
:1026E0006AEF77E187E10E94AB1880913D039091FA
:1026F0003E0397FD02C0292F01C020E043E363EFB2
:1027000077E18EE215C080914003882331F08091FB
:102710000B0390910C030F9780F480913C032BEAFC
:10272000829F212D1124269547E265EE77E182E212
:10273000DF91CF910F910C94AB184CEE57E168E10B
:1027400070E08BE790E00E94E317E7CFDF91CF9135
:102750000F9108959091E60224E0929FF0011124D8
:10276000ED51FE4F805F8083685F6183428381E02B
:10277000838380913C03815080933C039F5F9F3013
:1027800019F09093E60208951092E6020895CF9210
:10279000DF92EF92FF920F931F93CF93DF93EC01A1
:1027A0008885882309F4EAC08F89882311F0815035
:1027B0008F8B8F898111E2C02C8D2111A6C04A8D8B
:1027C0005B8DE88CF98CF7013296E40FF51F0491CC
:1027D000FA01EE0DFF1D849197012F5F3F4FFA0123
:1027E000E20FF31F1491CD88E82FC110E195DE8828
:1027F000D1101195013809F486C0083008F051C095
:102800006889062E000C770B6E0F711DE7FD7A9517
:10281000072E000C880B990B0E949C2F20E030E0C3
:1028200040E852E40E94F82E20E030E040E857E40F
:102830000E9428300E94642F688379838A839B8357
:102840006989062E000C770B610F711D17FD7A95B3
:10285000072E000C880B990B0E949C2F20E030E083
:1028600040E052E40E94F82E20E030E040E857E4D7
:102870000E9428300E94642F6C837D838E839F8307
:102880008D85833019F486E08E8701C00E87CC20B9
:1028900009F468C0EE85F0E0D1106BC0E759FE4F37
:1028A0006AC0ED8F1E8F8E2FEE0F990BAA0BBB0BFC
:1028B000DC0199278827488159816A817B81840FAF
:1028C000951FA61FB71F88839983AA83BB83812F77
:1028D000110F990BAA0BBB0BDC01992788274C81A0
:1028E0005D816E817F81840F951FA61FB71F8C832A
:1028F0009D83AE83BF8301500C8F83E0E80EF11CF3
:10290000F98EE88E3BC0188639C08D8D082E000CDC
:10291000990BAA0BBB0BDC019927882748815981A9
:102920006A817B81840F951FA61FB71F88839983B7
:10293000AA83BB838E8D082E000C990BAA0BBB0BB0
:10294000DC01992788274C815D816E817F81840F0E
:10295000951FA61FB71F8C839D83AE83BF83215015
:102960002C8F0CC0DD2049F2EE85F0E0EF59FE4FD0
:1029700002C0E75AFE4F80818E87BFCFDF91CF9193
:102980001F910F91FF90EF90DF90CF9008958F925D
:102990009F92AF92BF92CF92DF92EF92FF920F93EE
:1029A0001F93CF93DF93CDB7DEB76F970FB6F89431
:1029B000DEBF0FBECDBF10922702109246021092CA
:1029C0006502109284021092A3021092C202FC01CE
:1029D00094902FE1E22E22E0F22E8C010E5F1F4F29
:1029E00036E3C32E32E0D32EA12C4FE1B42E55E0B6
:1029F000852EA91409F48AC0F8013197E491E130D9
:102A0000E1F0B8F0E23049F1E33059F545E557E13E
:102A100063E0CE0101960E94E60FFE013196D701D8
:102A20008B2D01900D928A95E1F7F60138978082FF
:102A300018C048E058E160E003C045EB57E161E0B1
:102A4000CE0101960E94E60FFE013196D7018B2D33
:102A500001900D928A95E1F704C045E857E162E0E4
:102A6000EFCFF8018491E82FF0E0EE0FFF1FEF5851
:102A7000FE4F80819181D7015B969C938E935A97EC
:102A800059961C921E925897F8013196E491D601FE
:102A90001797EC93F8013296E4911196EC93F801B4
:102AA0003396E491D601EC93F8013496E4911297B1
:102AB00081E0E13009F080E08C93F8013596E491F3
:102AC000D601119781E0E13009F080E08C93F801A4
:102AD0003696E491D70119961C9219971A96EC93A1
:102AE0001A9753961C921E925297F6013F9781E0D7
:102AF0008083C7010E94C713A394BFE1EB0EF11CB2
:102B0000085F1F4FEFE1CE0ED11C73CF6F960FB64B
:102B1000F894DEBF0FBECDBFDF91CF911F910F9113
:102B2000FF90EF90DF90CF90BF90AF909F908F90ED
:102B30000895DC011B96ED91FC911C973E968591C2
:102B40009491FC0184910895DC011B96ED91FC9118
:102B50001C973C9685919491FC01849108950F9364
:102B60001F93CF93DF9300D000D000D0CDB7DEB756
:102B7000FC014081518162817381AB01772757FD50
:102B80007095672FA42F5A8349830481158126816C
:102B900037818901332717FD3095232F402F1C8360
:102BA0000B8383859485FC013C9665917491FB01B0
:102BB0006491FC013E9685919491FC0174912A2FB9
:102BC0003A815C8180E090E026960FB6F894DEBFF3
:102BD0000FBECDBFDF91CF911F910F9108956F92DE
:102BE0007F928F929F92AF92BF92CF92DF92EF929D
:102BF000FF920F931F93CF93DF9300D000D0CDB7F8
:102C0000DEB769014115510509F4CAC1FA011491F1
:102C10003196E4910F3F29F4232B11F001E001C01C
:102C200002E0E12EF12C9C012E0D3F1D1216130621
:102C30000CF0B6C1803891050CF0B2C1DB01AE0FCB
:102C4000B11D1A161B060CF0ABC1603471050CF0F7
:102C5000A7C1DB0177FF04C0AA27BB27A61BB70BC0
:102C6000FA2FF7708F2EDB0177FD1796F3E0B595FD
:102C7000A795FA95E1F7FA2F77FF07C0882029F08A
:102C8000FFEFFA0F68E06819862E97FF05C0AA27A4
:102C9000BB27A81BB90B02C0A0E0B0E0203831056B
:102CA00024F020E8922E981A01C0912E9A1A2F2F04
:102CB0000F2E000C330BFF3F1CF4622F609501C0F8
:102CC00060E0BB24B3947E2F777009F4B12CE695B5
:102CD000E695E695BE0E2B0D311D293031051CF011
:102CE00028E0B22EBF1AB61A362F3F0F20E8320363
:102CF000800D911D11248A0F9B1F619FA00DB11D96
:102D000011244E5F5F4F4A0F5B1F61E070E0082C9B
:102D100002C0660F771F0A94E2F7033009F4FDC082
:102D2000A0F4013009F4AFC0023009F039C12FEF2F
:102D3000269F8001279F100D1124009510951C835C
:102D40000B837C806B2C630E27C00A3F29F00B3F5E
:102D500009F026C1B30E83C0B30E4EC0FA01EC0DCC
:102D6000FD1DE491E69F5001E79FB00C1124BA824B
:102D7000A98237FD04C02C912023A22AAC92811095
:102D800014C0EFEFCE1ADE0A1196C91438F33F5F74
:102D90004E0D5F1D80589F4F361509F401C1DC01AF
:102DA000AF5BBC4FC12CD12CF0CF373054F7FD01B5
:102DB000E058FF4F20812721AA802A292083E1CFD4
:102DC000FA01E00FF11FE491E69F6001E79FD00C4C
:102DD0001124DA82C98237FD03C02C91C22ACC9219
:102DE000811013C00F5F1F4F1196091548F33F5F05
:102DF0004E0D5F1D80589F4F3B1509F4D1C0DC017B
:102E0000AF5BBC4F00E010E0F0CF37305CF7FD0166
:102E1000E058FF4FD0802A812D292083E3CFFA018B
:102E2000EC0DFD1DE491E69FD001E79FB00D11244C
:102E3000BA83A98337FD05C0A095F8012081A2239C
:102E4000A083811015C0FFEFCF1ADF0A0F5F1F4F5D
:102E5000C91428F33F5F4E0D5F1D80589F4F3B15EF
:102E600009F49EC08C010F5B1C4FC12CD12CF0CFFC
:102E700037304CF7D801A058BF4F2A812095EC91EC
:102E80002E232C93E0CFAC0DBD1D2B2D230F32171D
:102E900009F486C0FC01EF5BFC4F5F01C12CD12C13
:102EA000C91498F5FD01EC0DFD1DE491E69F80012C
:102EB000E79F100D1124009510951C830B83FA01D8
:102EC000EC0DFD1DE491E69F3001E79F700C11248D
:102ED0007A82698237FD05C0F50110810123602ADD
:102EE0006082882059F037304CF4F501E058FF4FEC
:102EF00000811C8110230A81102B1083FFEFCF1A51
:102F0000DF0AEFEFAE1ABE0ACBCF3F5F4E0D5F1D5B
:102F1000AE0DBF1D80589F4FBACFC92CD12CFA01DE
:102F2000EA0FFB1FDC01AF5BBC4FAC014F535C4FA2
:102F300000E810E00C191D09EC18FD08EE0CFF1C50
:102F40009B2D692C7B2CCF93DF93EA01A590C59034
:102F5000882059F0A69E5001C69E600137302CF49F
:102F60002881D0942D212B29299333233AF02C91B9
:102F7000C0942C212A292D930C94BF1711969A9452
:102F800029F79A9551F0962C33951124EE0DF11DE9
:102F9000A00FB11DC00FD11DD9CFDF91CF9111244A
:102FA0000F900F900F900F90DF91CF911F910F9185
:102FB000FF90EF90DF90CF90BF90AF909F908F9059
:102FC0007F906F9008950F9302E020E030E00E9420
:102FD000EF150F910895CF93DF9300D000D000D06C
:102FE000CDB7DEB7EBE2F3E080819181A281B381BE
:102FF000CD01BB2797FDB095AB2F282F9A838983EE
:1030000084819581A681B781CD01BB2797FDB095BD
:10301000AB2F482F9C838B8383859485FC0165911E
:103020007491FB016491FC0185919491FC013196AE
:1030300074913A815C8180E090E026960FB6F89416
:10304000DEBF0FBECDBFDF91CF9108955F926F922B
:103050007F928F929F92AF92BF92CF92DF92EF9228
:10306000FF920F931F93CF93DF93EC018B017A01B3
:10307000A901461B570B57FF03C0519541955109B4
:10308000C7018C1B9D0B97FF03C0919581959109FA
:10309000552453948417950714F0512C0AC09E2D83
:1030A0008F2D7901292F382F9C2F8D2FE801092F83
:1030B000182FEC16FD0654F4902F812F8901292F2B
:1030C000382F9C2F8D2FE701E92EF82E37016C1A2F
:1030D0007D0A5901A01AB10AB7FE03C0B194A194A8
:1030E000B108630177FE03C08FEFC81AD80AD594E0
:1030F000C7940217130714F08FEF01C081E0882EE8
:10310000880F9908EC16FD06B4F021E0552019F05F
:10311000AE01B80102C0A801BE0181E193E00E94A6
:103120004111CA18DB08D7FE04C0080D191DC60CD2
:10313000D71C2196E7CFDF91CF911F910F91FF9080
:10314000EF90DF90CF90BF90AF909F908F907F9047
:103150006F905F9008950F931F93CF93DF93042F89
:10316000D22F90E0AB01BC018BE790E00E94E31707
:10317000D53030F480910B0390910C030F9780F0C1
:10318000C0E010E0CD1760F4B8016C0F711D9B0119
:1031900040E850E08BE790E00E942618CE5FF2CF27
:1031A000DF91CF911F910F9108958F929F92AF92CF
:1031B000BF92CF92DF92EF92FF920F93CF93DF9364
:1031C0006B01EC014C01840E911C5B01A20EB11C41
:1031D000C815D905ECF47601D7FE10C0E12CF12C0E
:1031E0000DC0E816F90694F4202FA701BE0181E175
:1031F00093E00E9441112FEFE21AF20AC50121E487
:10320000A216B10474F380E490E0EBCF2196E0CFF6
:10321000DF91CF910F91FF90EF90DF90CF90BF9013
:10322000AF909F908F90089580E0E1E4F3E08111EA
:103230008FEF002481938193819381930394D1F73D
:1032400008950F931F93CF93DF938C01C0E0D0E0DC
:10325000F801EC0FFD1F6491662371F0E0910D03FE
:10326000F0910E030190F081E02D8DE093E009953F
:10327000892B11F02196ECCFCE01DF91CF911F91D8
:103280000F91089520911703282329F49091160394
:10329000982381E009F480E008958F929F92AF9285
:1032A000BF920F931F93CF93DF93CDB7DEB7A19754
:1032B0000FB6F894DEBF0FBECDBF19A2423008F49E
:1032C0004AE08E010F5D1F4F842E912CA12CB12C52
:1032D000A50194010E94C62EE62FB901CA01015032
:1032E0001109EA3014F4E05D01C0E95CD801EC9307
:1032F000232B242B252B61F70115110571F0F80103
:1033000001900020E9F73197AF01401B510BB80144
:103310008DE093E00E94EB0E02C080E090E0A19669
:103320000FB6F894DEBF0FBECDBFDF91CF911F91D6
:103330000F91BF90AF909F908F90089541E050E023
:1033400061EA71E08DE093E00C94EB0ECF93DF9394
:10335000CDB7DEB7CC54D1090FB6F894DEBF0FBE9F
:10336000CDBF789484B5826084BD84B5816084BD0E
:1033700085B5826085BD85B5816085BD80916E0013
:10338000816080936E001092810080918100826044
:103390008093810080918100816080938100809181
:1033A00080008160809380008091B1008460809370
:1033B000B1008091B00081608093B00080917A006C
:1033C000846080937A0080917A00826080937A0092
:1033D00080917A00816080937A0080917A00806881
:1033E00080937A001092C10080E00E94791281ECF3
:1033F00080937C0085B1856085B9209884B18C620A
:1034000084B988B18F6088B9449887B1807E87B9C4
:103410008BB184688BB98AB187778AB98AB18C6499
:103420008AB980E58CBD81E08DBD85E090E00E9489
:103430001C115B9A85E090E00E941C115A985E98DE
:10344000E3E7F3E08DE08E0F94919EBD00000DB494
:1034500007FEFDCF31968E13F7CF5E9A82E090E0A3
:103460000E947E2E882329F0559A81E08093D9020C
:1034700003C01092D90255988DE790E090930E0109
:1034800080930D018CE291E090930C0180930B01ED
:1034900080E09BE490930A018093090180E09EE024
:1034A0009093080180930701909306018093050192
:1034B00082E390E0909304018093030180ED90E01B
:1034C0000E944E128330910510F080E090E09093BE
:1034D000DF028093DE0284E1809318038091640010
:1034E0008E7F8093640080917A00806480937A005C
:1034F00080917A0086FDFCCF0091780010917900D0
:103500000E94FF0F20E030E0980111270027600F94
:10351000711F821F931F611571058105910511F0BF
:103520000E94752E809164008160809364002FB7A3
:10353000F8948091A4019091A501A091A601B09169
:10354000A7012FBF40911D0350911E0360911F03DF
:103550007091200320912103222349F02091190327
:10356000821B80932203109221030C94582384170A
:103570009507A607B70788F4481B423010F40C944F
:10358000582383B7817F83BF83B7816083BF8895CA
:1035900083B78E7F83BF0C94582321E020932103AF
:1035A0008093190390931A03A0931B03B0931C03F9
:1035B00020911803820F911DA11DB11D80931D0341
:1035C00090931E03A0931F03B093200380911403D4
:1035D00090911503019690931503809314030E9414
:1035E00014191092260310922503109224031092AE
:1035F000230380911603809317030E942111809367
:103600001603E091E5028E2F90E08830910510F0CE
:103610000C945823FC01EC5CFF4F0C94C9301092C1
:10362000E4021092E30280EE9FEF9093E202809317
:10363000E10211E01093E50281E49EE00E9409118D
:1036400010923B0310923A031092400380E09EE0F8
:1036500090933E0380933D0390933503809334030E
:103660002BE420933C0310923903109238031092FC
:103670003F031093330340E050E061E070E040937B
:103680002B0350932C0360932D0370932E0340E083
:1036900050E068E170E040932F0350933003609353
:1036A0003103709332032DE730E030930E01209305
:1036B0000D012CE231E030930C0120930B0120E04E
:1036C0003BE430930A012093090190930801809311
:1036D000070190930601809305014EC14DE55BE023
:1036E00060E070E082E090E00E94E3174BE65AE071
:1036F00062E370E085E090E00E94E3178091D902D8
:10370000882341F043E55AE062E370E084E790E00B
:103710000E94E3178091E002882309F100E02EE087
:1037200040E462E370E088E490E00E94D51845E14F
:103730005AE062E370E088E490E00E94E317E091D1
:10374000DE02F091DF02EE0FFF1FED5AFE4F4081C7
:10375000518162E370E089E690E00E94E317E09017
:10376000E102F090E20228E8E216F104BCF400E085
:1037700021E148EC6FE270E0C70102970E94D51882
:1037800043EE59E06FE270E0C7010E94E3173FEF9C
:10379000E31AF30AF092E202E092E10281E193E09F
:1037A0000E942F1184E00E9442198823B9F0809171
:1037B000DE029091DF028230910528F40196909309
:1037C000DF028093DE026091DE027091DF0280ED05
:1037D00090E00E94631281E08093E00282E00E9408
:1037E00042198823B1F08091DE029091DF020097A8
:1037F00029F001979093DF028093DE026091DE0250
:103800007091DF0280ED90E00E94631281E080936E
:10381000E00289E00E944219882319F086E0809333
:10382000E50280E80E944219882329F082E0809313
:10383000E5021092E40280E40E944219882309F410
:1038400037C71092E0028091D902882321F01092AC
:10385000D902559804C0559A81E08093D9026091AD
:10386000D90282E090E02A966FAF2A970E947E2EBE
:103870002A966FAD2A97681709F41AC782E090E07C
:103880000E94862E15C710922702109246021092AF
:103890006502109284021092A3021092C20280E08C
:1038A00090E0FC01ED51FE4F138204968C3391059C
:1038B000C1F780E090E0FC01E554FE4F13820496CE
:1038C00088329105C1F71092400300E01EE010938A
:1038D0003E0300933D0310933503009334038BE4C0
:1038E00080933C03109239031092380310923F03E7
:1038F00081E08093330380E090E0A1E0B0E080932A
:103900002B0390932C03A0932D03B0932E0380E000
:1039100090E0A8E1B0E080932F0390933003A09350
:103920003103B09332031092B1018DE399E00E940C
:10393000091180E590E09093E2028093E10283E038
:103940008093E5028DE790E090930E0180930D0146
:103950008CE291E090930C0180930B0180E09BE45A
:1039600090930A01809309011093080100930701C5
:10397000109306010093050182E390E09093040107
:103980008093030184E18093180392C68091E4023E
:10399000893018F402E01DE502C000E013E6209132
:1039A000E1023091E2022130310509F440C00CF40B
:1039B000D8C0213531050CF0D4C0802F90E0859619
:1039C00090932403809323038DE190E0909326034A
:1039D000809325031092280381E08093270384E3DA
:1039E00099E00E9421192091E40230E0B9016F5F53
:1039F0007F4F072E000C880B990B4AE00E944D194F
:103A00000D5D21E04AE1612F802F0E94BE1221E06E
:103A100046E2612F802F0E94BE128091E1029091B8
:103A2000E20201979093E2028093E1029AC065E07E
:103A30000E949530E92FF0E0EE0FFF1FE75BFE4F8D
:103A40000190F081E02D14911093DA0282E08093CE
:103A5000E3023196E491E093DC02F0E0EE0FFF1F09
:103A6000E55DFE4F808191810E94C7141150109333
:103A7000DD02E091DE02F091DF02DF01A85DBE4FC2
:103A80008C916091030170910401680F711D87FD95
:103A90007A957093040160930301DF01AB5DBE4F23
:103AA0008C91082E000C990B20910D0130910E0184
:103AB000280F391F30930E0120930D0120910B0127
:103AC00030910C01820F931F90930C0180930B0196
:103AD0008091090190910A01813045E294076CF0D0
:103AE000DF01AA0FBB1FA15EBE4F2D913C91821B2F
:103AF000930B90930A0180930901809107019091A3
:103B00000801813057E095076CF0DF01AA0FBB1F59
:103B1000A75EBE4F2D913C91821B930B90930801A1
:103B20008093070180910501909106018130A7E003
:103B30009A0764F0EE0FFF1FED5EFE4F208131818A
:103B4000821B930B9093060180930501772788EEE3
:103B500093E00E94B530609318031092E202109235
:103B6000E10280913D0390913E03181619060CF076
:103B700044C0209134033091350312161306ECF53E
:103B800020913F03211139C0029790933E03809307
:103B90003D03019621F410923E0310923D030E94D2
:103BA000211182FF02C00C9413270E94211181FF72
:103BB00002C00C9431270E94211183FF02C00C9493
:103BC0004E270E94211180FF02C00C946C2780E4D4
:103BD0000E944219882319F088E080933F0380E80F
:103BE0000E94421981110C9489278091E1029091E1
:103BF000E202892B11F40C94D12703EE11E0E6EEDA
:103C0000CE2EE1E0DE2EF4EEEF2EF1E0FF2EF601F7
:103C10003197E0818E2F90E08830910550F5FC01BE
:103C2000E45CFF4F0C94C930F80180818F5F808382
:103C3000D7018C9181508C931CC0F80105C0D8012C
:103C40008C918F5F8C93F70180818F5F11C0F80199
:103C5000808181508083D7018C918F5FECCFF801F8
:103C600005C0D8018C9181508C93F70180818150DF
:103C70008083D8016C91693710F0F6011082D7016A
:103C80004C91413410F0F6011082D6018C918823BA
:103C900039F050E070E021E081E193E00E944111B1
:103CA0000C5F1F4FB4E0CB0ED11CE4E0EE0EF11C14
:103CB000F2E00F311F0709F0AACF0BEB11E06EEB1A
:103CC000C62E61E0D62E7CEBE72E71E0F72EF601D2
:103CD0003197E0818E2F90E08830910550F5FC01FE
:103CE000EC5BFF4F0C94C930F80180818E5F8083BC
:103CF000D7018C9182508C931CC0F80105C0D8016B
:103D00008C918E5F8C93F70180818E5F11C0F801DA
:103D1000808182508083D7018C918E5FECCFF80137
:103D200005C0D8018C9182508C93F701808182501C
:103D30008083D8018C91893710F0F6011082D70169
:103D40008C91813410F0F6011082D6018C91882379
:103D500059F0F701408150E0D8016C9170E021E00A
:103D600081E193E00E9441110C5F1F4FB4E0CB0E44
:103D7000D11CE4E0EE0EF11CF1E0033E1F0709F058
:103D8000A6CF3FE1832E32E0932E47E2642E42E03D
:103D9000742E26E332E03AAF29AF5EE2252E52E0E0
:103DA000352EC4010E94C713C4010E94AF15298398
:103DB0003A834B835C836D837E8329813A818B8137
:103DC0009C81D3014C91442309F4C6C0E9ADFAADFE
:103DD00040814111C1C0A901460F511D141615069D
:103DE0000CF0BAC0203831050CF0B6C09C01270F8A
:103DF000311D37FDB1C0803491050CF0ADC091018B
:103E00002250310925963FAF2EAF2597D901BC919D
:103E1000BFABB33009F09CC080912B0390912C0371
:103E2000A0912D03B0912E032D01F8E04F0E511CEF
:103E300080912F0390913003A0913103B091320310
:103E40008D01085F1F4FF40180819181A281B381B0
:103E50007D01FDE1EF0EF11CF40184819581A681C5
:103E6000B7815D01DD24B7FCD094CD2CC4010E9444
:103E700099154E185F08869590E0A80EB91E680146
:103E8000CA18DB082396DFAECEAE23974114510447
:103E900009F418C4C601DD0CAA0BBB0BDC01992781
:103EA00088276C017D01FF0CCC08DC2C76019C017D
:103EB000AD016C2D7C2D8C2D9C2D00E10E94A63136
:103EC0006201550CEE08FF088601FF24EE2457011D
:103ED0006801DD0CAA08BA2C65012196ACAEBDAE16
:103EE000CEAEDFAE219757016801EDACFE2C0E2D52
:103EF0001E2D0E94D130F22FE32F8F2F9E2FA42F43
:103F0000B52FB7FF07C0B095A095909581959F4FAD
:103F1000AF4FBF4F2296BFAC22971B140CF4F5C3D2
:103F200014140CF4D4C34110E1C38B5F9946A24032
:103F3000B10985309649A44EB34008F01FC41FAAAA
:103F4000D1018C91BFA9B93009F01EC4F101808361
:103F5000D3018C9181111CC4BFE18B0E911CEFE148
:103F60006E0E711C29AD3AAD215E3F4F3AAF29AFBD
:103F70003FE1230E311C49ED841642E0940609F01E
:103F800010CF8091B101882389F14091B201509105
:103F9000B301052E000C660B770B762F652F542F7F
:103FA00044278091A9019091AA01A091AB01B09101
:103FB000AC01841B950BA60BB70B8093A9019093C2
:103FC000AA01A093AB01B093AC01CD01BB2797FD33
:103FD000B095AB2FAC01485F5F4F4838510508F4EE
:103FE0006CC5883F9F4F14F41092B10100912B03D0
:103FF00010912C0320912D0330912E03890133273A
:1040000017FD3095232FC801409680399105F8F4AB
:1040100080913D0390913E031816190644F4809157
:1040200034039091350381159B4F0CF0DAC58091D4
:10403000340390913503181619060CF058C52091D9
:104040003D0330913E03121613060CF0C1C50E94C9
:10405000E01281E193E00E942F118091E1029091A2
:10406000E202892BB1F580E090E0FC01E15EFD4FBA
:10407000208521112EC04F968A3B9105B1F71091F2
:10408000DD028091E402112309F46DC665E00E940F
:104090009530E92FF0E0EE0FFF1FE75BFE4F019038
:1040A000F081E02D8091E30291E0980F9093E3027C
:1040B000E80FF11DE491E093DC02F0E0EE0FFF1F4A
:1040C000E55DFE4F808191810E94C71411501093CD
:1040D000DD028091340390913503181619063CF4E3
:1040E00080913D0390913E031816190644F080918B
:1040F000A801811104C082EC97E00E94091180910F
:1041000033038111D5C22091380330913903809156
:104110003A0390913B03820F931F90933B0380934C
:104120003A030BC1A0903803B0903903E0903A03F2
:10413000F0903B030091DE021091DF020B591F4FFC
:10414000000F111FC8010E944E128E159F0520F40A
:10415000B701C8010E94631234ECC32EDD24DA9447
:104160004BE0842E912C12E00E94141990922403AB
:10417000809223038AE090E09093260380932503A6
:1041800083ED96E00E94211921E047E066E789E08F
:104190000E94BE1221E043E166E789E00E94BE1260
:1041A0001093E50200E024E14FEF65E070E0C60106
:1041B00002970E94D51843EB56E060E070E0C6011C
:1041C000C0960E94E31743EB56E062E170E0C6013F
:1041D0004E960E94E31743EE59E065E070E0C60199
:1041E0000E94E31781E193E00E942F1165E070E0E7
:1041F00080E090E00E94241092E0C90ED11CA2E859
:10420000CA16D10409F0B0CF8EE090E09093240359
:10421000809323038CE190E0909326038093250301
:1042200084EA96E00E942119B4E6AB16B10440F48A
:104230000E949E19EAE0AE16B10410F40E949E1985
:10424000B50180E090E04AE00E944D1982E190E0E3
:10425000909324038093230388E290E090932603B5
:104260008093250387E996E00E942119F4E6EF1672
:10427000F10440F40E949E192AE0E216F10410F4C1
:104280000E949E19B70180E090E04AE00E944D191B
:1042900081E193E00E942F1118E76AE070E080E06E
:1042A00090E00E9424101150C1F782E290E09093B8
:1042B00024038093230387E390E090932603809365
:1042C00025038CE896E00E94211921E045E366E28F
:1042D00082E20E94BE1221E04FE366E282E20E9487
:1042E000BE1281E193E00E942F1180E80E944219E2
:1042F00081110FC080911603809317030E94211132
:104300008093160364E670E080E090E00E94241041
:10431000ECCF8091DE029091DF02009731F4809122
:10432000E4028E3109F0C4C108C0019709F0C0C190
:104330008091E4028C3309F0BBC185E023C1E09099
:104340003A03F0903B0301E020E440E860E070E0D5
:1043500080E090E00E94D51838EEE31633E0F306D3
:1043600018F480E090E002C08DEF9FEF4AEE53E03A
:1043700060E070E00E94E31781E0809328031092D0
:1043800027038AE490E0909324038093230304E0BE
:1043900010E0109326030093250385EE93E00E941E
:1043A000211985E690E090932403809323031093D2
:1043B00026030093250380EE93E00E94211920E05C
:1043C00042E06CE788E40E94BE1220E04CE06CE71B
:1043D00088E40E94BE12C090DE02D090DF0245E663
:1043E000C40ED11CCC0CDD1CC6010E944E128C01E7
:1043F0008E159F0528F4B701C6010E94631287013C
:1044000058EEE51653E0F50620F4083E83E0180761
:1044100018F18AE490E0909324038093230398E2B8
:10442000C92ED12CD0922603C09225038BED93E0A8
:104430000E94211986E690E0909324038093230341
:10444000D0922603C092250398EEE91693E0F90670
:1044500050F50E949E191BC08CE490E090932403B9
:104460008093230388E2C82ED12CD0922603C092D9
:10447000250385ED93E00E9421198DE690E090934D
:10448000240380932303D0922603C0922503A4E63D
:10449000EA16F10440F40E949E19BAE0EB16F1040A
:1044A00010F40E949E19C701A0E0B0E04AE0BC01F0
:1044B000CD010E944D19E8EEEE16E3E0FE0638F459
:1044C000083EF3E01F0718F48CE490E002C088E493
:1044D00090E0909324038093230384E390E09093EF
:1044E00026038093250380ED93E00E94211928EE96
:1044F000E21623E0F20638F4083E33E0130718F41E
:104500008DE690E002C086E690E0909324038093CD
:10451000230384E390E090932603809325030436DD
:10452000110538F40E949E190A30110510F40E94FA
:104530009E19B80180E090E04AE00E944D1981E1A7
:1045400093E00E942F1184E00E944219882329F0F1
:1045500082E00E94421981115EC480E80E944219E3
:10456000882309F4A5C01092E502A2C080EE9FEF57
:104570009093E2028093E1021092280381E08093FD
:10458000270387E08093E50293C014ECE12EFF241B
:10459000FA940E9414194CE250E050932403409383
:1045A00023038AE090E0909326038093250388EC10
:1045B00093E00E94211921E047E06BE684E10E942C
:1045C000BE1221E043E16BE684E10E94BE1210922C
:1045D000E50200E024E14FEF65E070E0C7010297DB
:1045E0000E94D51843EB56E060E070E0C701C0962A
:1045F0000E94E31743EB56E062E170E0C7014E967C
:104600000E94E31743EE59E065E070E0C7010E94A5
:10461000E31781E193E00E942F1165E070E080E0F4
:1046200090E00E94241092E0E90EF11CA2E8EA1644
:10463000F10409F0AECF40EB53E06CE170E08EE0A6
:1046400090E00E94E31706E210E010932403009329
:1046500023038EE190E0909326038093250382EA62
:1046600093E00E9421194EE853E069E270E08FE088
:1046700090E00E94E3171093240300932303ECE2DD
:10468000F0E0F0932603E093250380E893E00E9496
:10469000211981E193E00E942F110E94211187FDD1
:1046A00062CF64E670E080E090E00E942410F5CFD5
:1046B00080E090E0892B11F40C94971A0E9400007E
:1046C0000C94971A80E090E0A7EEB3E023CCAC0105
:1046D000BD01415051096109710947305A466105D0
:1046E000710508F07BC042E04FAB2ACCAC01BD01A4
:1046F000415051096109710947305A4661057105F8
:1047000008F07BC056E05FAB1BCC141474F4AC0112
:10471000BD01415051096109710947305A4661058F
:104720007105A0F492E09FAB0BCC4420D9F0AC0112
:10473000BD01415051096109710947305A4661056F
:10474000710508F069C0A6E0AFABFACBAC01BD01C2
:1047500049505A4661097109413F5F4F61407105F7
:1047600008F4EECB8B5F9946A240B109863096499A
:10477000A44EB34030F434E03FABE2CB89E08FABE2
:10478000DFCBB9E0BFABDCCBB81355C08B2FDECB92
:10479000E9ADFAAD80818111DFCBD401CD90DD9000
:1047A000ED90FC906701FF24D7FCF094EF2CC4013E
:1047B0000E94A41590E0C80ED91ED7FCCDCBF40101
:1047C00080819181A281B381CD01BB2797FDB095F6
:1047D000AB2F803891050CF468C0BECBAC01BD0195
:1047E00049505A4661097109413F5F4F6140710567
:1047F00008F09BCBE1E0EFABA3CBAC01BD0149508E
:104800005A4661097109413F5F4F6140710508F0E7
:104810008CCBF7E0FFAB94CBAC01BD0149505A46BD
:1048200061097109413F5F4F6140710508F09ACFFE
:1048300025E02FAB85CB4FA9642F70E0482F50E0C7
:104840009B01241B350BF9013396379720F4121680
:104850001306BCF408C09B01285F3F4F241B350B97
:104860001216130684F4873011F08F5F01C080E0C8
:10487000482F50E09B01241B350BF90133963797E5
:1048800010F4932F07C028EF3FEF241B350B620F66
:10489000731F972F991F9927991F09F457CB8823C6
:1048A00011F0815053CB87E051CBF40143855485FF
:1048B000F1013197E081F0E03896BF01660F771F74
:1048C000FA01E60FF71F25913491FB017097E40F71
:1048D000F51F45915491F401C480D580E680F7809E
:1048E0006701FF24D7FCF094EF2C01E0B6010E9491
:1048F000EF152596AEADBFAD25978C91833029F489
:10490000D1018C91863009F0B4C0F4018185928583
:10491000181619060CF46FC080549109928781878C
:104920002285822F022E000C990B97FF03C09195D0
:10493000819591092F3FFCF42D3F0CF042C02C3F94
:1049400009F059C0D4011B96ED91FC911C97B696C5
:1049500045915491F40184819581A681B781BD016F
:10496000992777FD9095892F828193810E94E31783
:10497000D3011C9240C012160CF43DC0D4011B960A
:104980004D915C911C974496880F991FFA01E80F8E
:10499000F91F259134910897FA01E80FF91F459105
:1049A0005491F40184819581A681B781BD01992735
:1049B00077FD9095892F01E0828193810E94EF1508
:1049C0001AC04096880F991FD4011B96ED91FC9157
:1049D0001C97E80FF91F45915491F401848195814A
:1049E000A681B781BD01992777FD9095892F828196
:1049F00093810E94E317F40182899389181619069E
:104A00000CF0AACA923081F0933011F0913029F560
:104A1000D4011B968D919C911C97FC01B896259111
:104A20003491FC01B09608C083859485FC01BA9648
:104A300025913491FC01B29645915491F401848101
:104A40009581A681B781BD01992777FD9095892F22
:104A500001E0828193810E94EF15D40152968D91DD
:104A60009C9153978054914053969C938E93529768
:104A700073CAF4014385548590E00896880F991F06
:104A8000FA01E80FF91F259134914097FA01E80FD8
:104A9000F91F45915491F40184819581A681B781D4
:104AA000BD016D5F7F4F80819181A281B38101E063
:104AB000CD0148960E94EF1528CF2091B901309181
:104AC000BA014091B7015091B801C090AD01D090AA
:104AD000AE01E090AF01F090B0016701FF24D7FC78
:104AE000F094EF2C01E0B6010E94EF157FCA0C97FD
:104AF0009093350380933403E92F892F990F990BF5
:104B00001E1614F4019702C0809590954E2FEE0F5B
:104B1000550B660B770BFA013A96EA30F10508F06F
:104B20008ECAE45BFF4F0C94C9304091360350911C
:104B3000370399274496880F991FFA01E80FF91F48
:104B4000259134910897FA01E80FF91F4591549186
:104B500080912F0390913003A0913103B0913203E3
:104B6000BD01992777FD9095892F01E080912D0354
:104B700090912E030E94EF1562CA9927FC0170964E
:104B8000CF01880F991FE0913603F0913703E80FAA
:104B9000F91F05C0E0913603F0913703B6964591B1
:104BA000549180912F0390913003A0913103B091E3
:104BB0003203BD01992777FD9095892F80912D03B0
:104BC00090912E030E94E3173ACA1092330337CA1A
:104BD0008091340390913503181619060CF45AC0CD
:104BE00036CAC80160913F03462F469546954695C3
:104BF000433019F4C801079609C0443008F03CC09E
:104C00004130C1F3423011F4C8010E9650E09A01D0
:104C1000215031092730310518F46F5F60933F034D
:104C200020913F03203411F410923F03609136032A
:104C300070913703485F5F4F440F551FFB01E40F2E
:104C4000F51F2591349140515109FB01E40FF51FE7
:104C500045915491C0902F03D0903003E0903103E0
:104C6000F09032036701FF24D7FCF094EF2C01E0B1
:104C7000B6010E94EF15DBC9463019F4C80102974E
:104C8000C5CF473019F4C8010197C0CF453009F0AE
:104C9000BDCFF9CF2C50310930933E0320933D0313
:104CA00040912B0350912C0360912D0370912E03A2
:104CB000AB01772757FD7095672F932F97FD91953F
:104CC000C92ED12C81E1C816D10408F0C0C9F60163
:104CD000EA5AFF4F0C94C93016E003C01BE001C034
:104CE0001EE0140F99E031E016C014E1140F9EE0AD
:104CF00036E011C05527431B12E1140F34E1390F80
:104D0000985E09C014E1140F38E0390F945F03C0B6
:104D1000109233039CC94091360320913703E42F4E
:104D2000F22FE90FF11DE90FF11DA591B491E42FC8
:104D3000F22FE30FF11DE30FF11D45915491C09047
:104D40002F03D0903003E0903103F0903203B7018D
:104D5000992777FD9095892F01E09D01812F90E0A3
:104D60000E94EF1574C94091380350913903209186
:104D70003A0330913B03240F351F30933B032093BC
:104D80003A038F5F8093E40288E290E09093E2021E
:104D90008093E10280E898E00E94091100E010E0B1
:104DA0000E941419109226031092250310922403D6
:104DB0001092230380912F0390913003A09131032F
:104DC000B0913203BD01992777FD9095892FC0904E
:104DD0002B03D0902C03E0902D03F0902E0343EE94
:104DE00059E0C8018E0D9F1D0E94E3170E94E0123A
:104DF00081E193E00E942F116AE070E080E090E092
:104E00000E9424100F5F1F4F0038110549F684E0FF
:104E10008093E5025EC981E00E94791210923B0303
:104E200010923A039ACB80912F0390913003A09176
:104E30003103B09132038D3CECEC9E07A105B10526
:104E400014F40C94D51D8C5C9C4CA109B109809381
:104E50002F0390933003A0933103B09332030C944B
:104E6000D51D80912F0390913003A0913103B09113
:104E700032030097FFE2AF07B10514F00C94DB1D7D
:104E800084539343AF4FBF4F80932F0390933003CE
:104E9000A0933103B09332030C94DB1D80912B035C
:104EA00090912C03A0912D03B0912E03873626EE0E
:104EB0009207A105B10514F40C94E11D8656964E97
:104EC000A109B10980932B0390932C03A0932D0388
:104ED000B0932E030C94E11D80912B0390912C0331
:104EE000A0912D03B0912E03009738E6A307B105DA
:104EF00014F00C94E71D84539343AF4FBF4F80933E
:104F00002B0390932C03A0932D03B0932E030C94AA
:104F1000E71D80913C03882311F40C94F51D8091CA
:104F2000A801811104C086E299E00E940911C09095
:104F30002B03D0902C03E0902D03F0902E036701FB
:104F4000FF24D7FCF094EF2C80902F039090300337
:104F5000A0903103B09032034501BB2497FCB0947C
:104F6000AB2C42E0682D8C2D0E94AA138091400347
:104F7000882311F40C94F51D90913C03923010F4A9
:104F80000C94F51D81508093400341E0682D8C2DD9
:104F90000E94AA1343E0682D8C2D0E94AA130C9442
:104FA000F51D8091B101882309F468C08090A901A2
:104FB0009090AA01A090AB01B090AC014501BB2438
:104FC00097FCB094AB2CC090AD01D090AE01E090B6
:104FD000AF01F090B001E091B701F091B8010491F8
:104FE000319614910E94EB1729AB3AAB4BAB5CABFB
:104FF0006DAB7EAB86E0FE01F196DE019B960190E3
:105000000D928A95E1F729A93AA98BA99CA96EA9C5
:105010004DA9D901A40FB11D8A169B067CF5402F1E
:1050200050E0840E951E2815390544F56701FF24CC
:10503000D7FCF094EF2C9C01260F311DC216D3062D
:10504000ECF4E12FF0E0EC0DFD1D8E179F07B4F49A
:1050500065C2813008F078C28091B4019091B501A9
:1050600090933E0380933D031092B1018091A8017B
:10507000811104C086EE96E00E94091176EEE72EBB
:1050800071E0F72EE6E05E2E812CF3E09F2EF70113
:105090008081882309F446C03397C080D12C319693
:1050A000A080B12C0FE112E0D80118968C918823D2
:1050B00099F13801B9E06B0E711CF8018185928578
:1050C000181619064CF5C8010E94AF152DA33EA372
:1050D0004FA358A769A77AA7FE01B596DE015F9690
:1050E000852D01900D928A95E1F72DA13EA18FA10A
:1050F00098A559A54AA5C216D30674F0250F311DEF
:10510000C216D3064CF4A816B90634F0840F911DCC
:10511000A816B9060CF450C2015E1F4FB2E0093D5B
:105120001B0711F6E4E0EE0EF11CF2E2EF16F2E0DE
:10513000FF0609F0ACCF80913F038111B1C00E94FE
:10514000EB1729833A834B835C836D837E832EEB3D
:1051500031E080E090E066E0F62ED9014C914423E6
:1051600039F1F9013397008110E031966081FE0139
:105170003196DE0159964F2D01900D924A95E1F737
:10518000E981FA814B815C817D81AE810E171F0719
:105190007CF0E70FF11D0E171F0754F470E0641741
:1051A000750734F04A0F511D641775070CF42EC2B1
:1051B00001962C5F3F4F8A30910579F60E94EB17DC
:1051C00029833A834B835C836D837E8300E010E008
:1051D00056E0F52EC801815E9D4FFC0120852223FB
:1051E00009F458C02585233009F454C00E94AF1536
:1051F0002B8B3C8B4D8B5E8B6F8B788FFE013196AA
:10520000DE011D968F2D01900D928A95E1F769813F
:105210007A814B815C81DD80EE80FE017396DE0138
:1052200017968F2D01900D928A95E1F72B893C8975
:105230008D899E89BF89A88DFB01ED0DF11D2E176B
:105240003F0744F52B0F311D621773071CF59A01B8
:105250002E0D311D82179307ECF48A0F911D48170C
:105260005907C4F480913403909135030C979093BF
:1052700035038093340397FF04C0109235031092D6
:1052800034038091A80181110BC08AE097E00E944D
:10529000091106C0015E1F4F0A3B110509F09ACFA4
:1052A00080910201815080930201811124C13FE16C
:1052B000832E32E0932E46E3242E42E0342E2CE25D
:1052C00032E038AF2FAB412C512CC4010E94AF15F6
:1052D00029833A834B835C836D837E8329813A8162
:1052E0008B819C81F1013F974081442309F4E0C008
:1052F000D1014C914111DCC03C964081442309F41A
:10530000D7C0A901460F511D141615060CF0D0C0C8
:10531000203831050CF0CCC09C01270F311D37FD22
:10532000C7C0803491050CF0C3C080912B039091CD
:105330002C03A0912D03B0912E033D01F8E06F0ED8
:10534000711C80912F0390913003A0913103B09193
:1053500032037D0128E0E20EF11CD4010D911D9174
:105360002D913C915901DD24B7FCD094CD2CEFA9AF
:10537000F8AD8081833009F4ECC1C4010E94A4150A
:105380008695082F10E00A0D1B1DF401848195817C
:10539000A681B7815D01DD24B7FCD094CD2CAFA9E7
:1053A000B8AD8C91833009F44AC1C4010E949915AB
:1053B000869590E0601A710AA80EB91EF701EA19E5
:1053C000FB09FEAFEDAF6114710409F43BC1CF01DD
:1053D000FF0FAA0BBB0BDC01992788276C017D010D
:1053E000FF0CCC08DC2C76019C01AD016C2D7C2DD2
:1053F0008C2D9C2D00E10E94A6316301072C000C2E
:10540000EE08FF088601FF24EE2457016801DD0C39
:10541000AA08BA2C6501A9AEBAAECBAEDCAE570174
:105420006801E9ACFE2C0E2D1E2D0E94D130F22F0A
:10543000E32F8F2F9E2FA42FB52FB7FF07C0B09556
:10544000A095909581959F4FAF4FBF4FEFA9F8ADB5
:105450003081F101333009F0FAC038972081ADACCA
:10546000BEAC1A141B040CF40FC1161417040CF074
:1054700077C1843B41E29407A105B1050CF4E9C072
:10548000AC01BD014D56544C610971094F32594868
:105490006105710518F4213009F4DEC0805E97497A
:1054A000A740B10981329846AF4DB34008F454C1CA
:1054B000AFEF4A1A5A0ABFE18B0E911CEFE12E0E94
:1054C000311C2FA938AD215E3F4F38AF2FAB36E0EE
:1054D0004316510409F0F9CE0E94702E2AE030E004
:1054E00040E050E00E94942EDC01CB010A96A11D01
:1054F000B11D8093020180910001909101010197FB
:105500009093010180930001892B11F00C94FD1DF3
:105510008091B10181110C94FD1D73C18091B60180
:10552000813009F096CD20913C038091B5012696FB
:105530008FAF2697880F880B27968FAF27972796D0
:105540008EAD9FAD279718C0823009F1833009F0E6
:105550008BCD8AE08093400320913C038091B5017C
:1055600028968FAF2897880F880B29968FAF299799
:1055700029968EAD9FAD29979927820F911D8C3466
:10558000910510F08BE490E080933C036DCD209169
:105590003403309135038091B4019091B501820FAD
:1055A000931F8130BEE09B0714F080E09EE0909353
:1055B00035038093340358CDD7011C92F8018185BF
:1055C00092859A9597FF1FC0D8011A961C921E9239
:1055D0001997F801938A828AD30111968C918111CF
:1055E00009C0809138039091390301969093390353
:1055F000809338038091A801811194CD88EF96E0C3
:105600000E9409118FCD92878187E3CFFC01EE0FB5
:10561000FF1FEE0FFF1FE554FE4F138280913403EE
:10562000909135038054910990933503809334030E
:1056300097FFC4CD1092350310923403BFCD88E09C
:1056400090E0B8CE80E090E0A7EEB3E0FFCE3997CF
:1056500005CF223009F014CF8FE1849DF001859DA4
:10566000F00D1124E15EFD4F84898150848B80818F
:105670009181A281B3815D01DD24B7FCD094CD2C52
:10568000333089F488E113C0161417040CF092C06B
:10569000843BF1E29F07A105B1050CF07DC02230EB
:1056A00009F07AC0D9CFC4010E94A4158695F09064
:1056B000DB0294E0F99E80011124F801E554FE4FCD
:1056C000A80EA0828FE1849DF001859DF00D11242C
:1056D000E15EFD4F84819581A681B7815D01DD2466
:1056E000B7FCD094CD2C8585833029F0C4010E946D
:1056F0009915869501C088E0F801E554FE4FA80E83
:10570000A1828FE1849DD001859DB00D1124A15E01
:10571000BD4F1D968C911D97833019F41F968C9167
:1057200002C01E968C91F801E554FE4F828381E001
:1057300083838F0D8093DB028A3011F41092DB0299
:105740008091A8018111C8CE8CE197E00E940911D7
:10575000C3CE0DE110E017CE222309F47DCFA8CEF1
:10576000672809F49BCE843B51E29507A105B1055A
:105770001CF4263009F470CFAC01BD014D56544CD9
:10578000610971094F3259486105710508F086CEEB
:10579000273009F083CE60CFAC01BD014D56544C8B
:1057A000610971094F32594861057105C8F4233008
:1057B000B9F452CF6728A1F0843B41E29407A105D8
:1057C000B105E4F0AC01BD014D56544C61097109BD
:1057D0004F3259486105710518F4253009F43CCF62
:1057E000805E9749A740B10981329846AF4DB340DA
:1057F00008F05ECE243009F05BCE2ECF263011F7B4
:105800002BCF0E94702E24E030E040E050E00E9458
:10581000942E962E80913D0390913E0381309440CA
:105820000CF44FC080913403909135038130944043
:105830000CF465C051E0951639F1951608F441C095
:1058400082E0981609F45BC093E0991277C0E0906B
:105850000901F0900A01C7010F2C000CAA0BBB0B29
:105860006627782F892F9A2F20E032E040E050E021
:105870000E94942E89018AE2C82E87E0D82E92E7F2
:10588000A92E97E0B92E62C0E0900901F0900A01BC
:10589000C7010F2C000CAA0BBB0B6627782F892F92
:1058A0009A2F20E032E040E050E00E94942E8901DF
:1058B000A0E6CA2EA7E0DA2EBEEAAB2EB7E0BB2EDA
:1058C00045C0E0900501F0900601C7010F2C000CC7
:1058D000AA0BBB0B6627782F892F9A2F20E032E086
:1058E00040E050E00E94942E8901912C7EE4C72E66
:1058F00077E0D72EEAE9AE2EE7E0BE2E27C0E09093
:105900000701F0900801C7010F2C000CAA0BBB0B7C
:105910006627782F892F9A2F20E032E040E050E070
:105920000E94942E890132E0932E4CE3C42E47E06E
:10593000D42E56E8A52E57E0B52E08C0E12CF12C48
:1059400000E010E0C12CD12CA12CB12C9092B6011A
:1059500081E08093B10180E090E0A0E8B0E0809326
:10596000A9019093AA01A093AB01B093AC010E944E
:10597000702E26E330E040E050E00E94942EDB01E0
:10598000992788278093AD019093AE01A093AF0132
:10599000B093B0010E94702E9B0177FF04C02227B4
:1059A0003327261B370BC901992793959093B30191
:1059B0008093B2010E94702E9B0177FF04C02227C2
:1059C0003327261B370BB701601B710BC9010E94DF
:1059D000B5309801280F391F3093B5012093B401D9
:1059E000B092B801A092B701D092BA01C092B901A9
:1059F00020910B0130910C01C901A0E0B0E0C090F2
:105A00000D01D0900E01E12CF12CC816D906EA0642
:105A1000FB065CF59C01AD012C193D094E095F099F
:105A2000E9F02A962FAF2A972B963FAF2B972C960B
:105A30004FAF2C972D965FAF2D970E94702E2A9610
:105A40002FAD2A972B963FAD2B972C964FAD2C97C9
:105A50002D965FAD2D970E94942E03C060E070E0FC
:105A6000CB01C60ED71EE81EF91ED0920101C092CE
:105A700000010C94FD1D0F931F93CF93DF93EC0156
:105A800081E090E00E947E2E80FF2EC08AE090E0B0
:105A90000E947E2E9FEF980F9E3F30F522E330E06C
:105AA0003F8B2E8B28E330E0398F288F0BE010E0FE
:105AB000E881F9810190F081E02D682FCE010995F0
:105AC000C8010E947E2E0F5F1F4F0131110581F723
:105AD000CE0104960E942F1188EE93E0DF91CF91C2
